{
  "_format": "hh-sol-artifact-1",
  "contractName": "SupplyChain",
  "sourceName": "contracts/SupplyChain.sol",
  "abi": [
    {
      "inputs": [],
      "stateMutability": "nonpayable",
      "type": "constructor"
    },
    {
      "anonymous": false,
      "inputs": [
        {
          "indexed": false,
          "internalType": "string",
          "name": "name",
          "type": "string"
        },
        {
          "indexed": false,
          "internalType": "string",
          "name": "provider",
          "type": "string"
        },
        {
          "indexed": false,
          "internalType": "string",
          "name": "addedBy",
          "type": "string"
        }
      ],
      "name": "SupplyAdded",
      "type": "event"
    },
    {
      "anonymous": false,
      "inputs": [
        {
          "indexed": false,
          "internalType": "uint256",
          "name": "index",
          "type": "uint256"
        },
        {
          "indexed": false,
          "internalType": "enum SupplyChain.SupplyState",
          "name": "newState",
          "type": "uint8"
        }
      ],
      "name": "SupplyStateUpdated",
      "type": "event"
    },
    {
      "inputs": [
        {
          "internalType": "string",
          "name": "_name",
          "type": "string"
        },
        {
          "internalType": "string",
          "name": "_description",
          "type": "string"
        },
        {
          "internalType": "uint256",
          "name": "_quantity",
          "type": "uint256"
        },
        {
          "internalType": "string",
          "name": "_provider",
          "type": "string"
        },
        {
          "internalType": "string",
          "name": "_addedBy",
          "type": "string"
        }
      ],
      "name": "addSupply",
      "outputs": [],
      "stateMutability": "nonpayable",
      "type": "function"
    },
    {
      "inputs": [],
      "name": "getSupplies",
      "outputs": [
        {
          "components": [
            {
              "internalType": "string",
              "name": "name",
              "type": "string"
            },
            {
              "internalType": "string",
              "name": "description",
              "type": "string"
            },
            {
              "internalType": "uint256",
              "name": "quantity",
              "type": "uint256"
            },
            {
              "internalType": "string",
              "name": "provider",
              "type": "string"
            },
            {
              "internalType": "string",
              "name": "addedBy",
              "type": "string"
            },
            {
              "internalType": "enum SupplyChain.SupplyState",
              "name": "state",
              "type": "uint8"
            }
          ],
          "internalType": "struct SupplyChain.Supply[]",
          "name": "",
          "type": "tuple[]"
        }
      ],
      "stateMutability": "view",
      "type": "function"
    },
    {
      "inputs": [],
      "name": "owner",
      "outputs": [
        {
          "internalType": "address",
          "name": "",
          "type": "address"
        }
      ],
      "stateMutability": "view",
      "type": "function"
    },
    {
      "inputs": [
        {
          "internalType": "uint256",
          "name": "",
          "type": "uint256"
        }
      ],
      "name": "supplies",
      "outputs": [
        {
          "internalType": "string",
          "name": "name",
          "type": "string"
        },
        {
          "internalType": "string",
          "name": "description",
          "type": "string"
        },
        {
          "internalType": "uint256",
          "name": "quantity",
          "type": "uint256"
        },
        {
          "internalType": "string",
          "name": "provider",
          "type": "string"
        },
        {
          "internalType": "string",
          "name": "addedBy",
          "type": "string"
        },
        {
          "internalType": "enum SupplyChain.SupplyState",
          "name": "state",
          "type": "uint8"
        }
      ],
      "stateMutability": "view",
      "type": "function"
    },
    {
      "inputs": [
        {
          "internalType": "uint256",
          "name": "index",
          "type": "uint256"
        },
        {
          "internalType": "uint8",
          "name": "newState",
          "type": "uint8"
        }
      ],
      "name": "updateSupplyState",
      "outputs": [],
      "stateMutability": "nonpayable",
      "type": "function"
    }
  ],
  "bytecode": "0x6080604052348015600f57600080fd5b50336000806101000a81548173ffffffffffffffffffffffffffffffffffffffff021916908373ffffffffffffffffffffffffffffffffffffffff1602179055506115858061005f6000396000f3fe608060405234801561001057600080fd5b50600436106100575760003560e01c8063040ec06f1461005c57806315cbead61461007857806326f1a1fd146100945780638da5cb5b146100c9578063c873d1aa146100e7575b600080fd5b61007660048036038101906100719190610a69565b610105565b005b610092600480360381019061008d9190610bef565b61028e565b005b6100ae60048036038101906100a99190610cda565b61045d565b6040516100c096959493929190610e0c565b60405180910390f35b6100d16106d6565b6040516100de9190610eca565b60405180910390f35b6100ef6106fa565b6040516100fc91906110ad565b60405180910390f35b60008054906101000a900473ffffffffffffffffffffffffffffffffffffffff1673ffffffffffffffffffffffffffffffffffffffff163373ffffffffffffffffffffffffffffffffffffffff1614610193576040517f08c379a000000000000000000000000000000000000000000000000000000000815260040161018a90611141565b60405180910390fd5b60018054905082106101da576040517f08c379a00000000000000000000000000000000000000000000000000000000081526004016101d1906111ad565b60405180910390fd5b8060ff1660038111156101f0576101ef610d95565b5b60018381548110610204576102036111cd565b5b906000526020600020906006020160050160006101000a81548160ff0219169083600381111561023757610236610d95565b5b02179055507f16a2629b8035a97a4d2acdce5aad2efb5b415ce41e24e4e3cd321afa5713e3c1828260ff16600381111561027457610273610d95565b5b6040516102829291906111fc565b60405180910390a15050565b60008054906101000a900473ffffffffffffffffffffffffffffffffffffffff1673ffffffffffffffffffffffffffffffffffffffff163373ffffffffffffffffffffffffffffffffffffffff161461031c576040517f08c379a000000000000000000000000000000000000000000000000000000000815260040161031390611141565b60405180910390fd5b60016040518060c001604052808781526020018681526020018581526020018481526020018381526020016000600381111561035b5761035a610d95565b5b8152509080600181540180825580915050600190039060005260206000209060060201600090919091909150600082015181600001908161039c9190611431565b5060208201518160010190816103b29190611431565b506040820151816002015560608201518160030190816103d29190611431565b5060808201518160040190816103e89190611431565b5060a08201518160050160006101000a81548160ff0219169083600381111561041457610413610d95565b5b021790555050507f1dcb4f005bd37cd227744dd9863613a51b11f6c07d5de51150f046be93de9cb685838360405161044e93929190611503565b60405180910390a15050505050565b6001818154811061046d57600080fd5b906000526020600020906006020160009150905080600001805461049090611254565b80601f01602080910402602001604051908101604052809291908181526020018280546104bc90611254565b80156105095780601f106104de57610100808354040283529160200191610509565b820191906000526020600020905b8154815290600101906020018083116104ec57829003601f168201915b50505050509080600101805461051e90611254565b80601f016020809104026020016040519081016040528092919081815260200182805461054a90611254565b80156105975780601f1061056c57610100808354040283529160200191610597565b820191906000526020600020905b81548152906001019060200180831161057a57829003601f168201915b5050505050908060020154908060030180546105b290611254565b80601f01602080910402602001604051908101604052809291908181526020018280546105de90611254565b801561062b5780601f106106005761010080835404028352916020019161062b565b820191906000526020600020905b81548152906001019060200180831161060e57829003601f168201915b50505050509080600401805461064090611254565b80601f016020809104026020016040519081016040528092919081815260200182805461066c90611254565b80156106b95780601f1061068e576101008083540402835291602001916106b9565b820191906000526020600020905b81548152906001019060200180831161069c57829003601f168201915b5050505050908060050160009054906101000a900460ff16905086565b60008054906101000a900473ffffffffffffffffffffffffffffffffffffffff1681565b60606001805480602002602001604051908101604052809291908181526020016000905b828210156109dd57838290600052602060002090600602016040518060c001604052908160008201805461075190611254565b80601f016020809104026020016040519081016040528092919081815260200182805461077d90611254565b80156107ca5780601f1061079f576101008083540402835291602001916107ca565b820191906000526020600020905b8154815290600101906020018083116107ad57829003601f168201915b505050505081526020016001820180546107e390611254565b80601f016020809104026020016040519081016040528092919081815260200182805461080f90611254565b801561085c5780601f106108315761010080835404028352916020019161085c565b820191906000526020600020905b81548152906001019060200180831161083f57829003601f168201915b505050505081526020016002820154815260200160038201805461087f90611254565b80601f01602080910402602001604051908101604052809291908181526020018280546108ab90611254565b80156108f85780601f106108cd576101008083540402835291602001916108f8565b820191906000526020600020905b8154815290600101906020018083116108db57829003601f168201915b5050505050815260200160048201805461091190611254565b80601f016020809104026020016040519081016040528092919081815260200182805461093d90611254565b801561098a5780601f1061095f5761010080835404028352916020019161098a565b820191906000526020600020905b81548152906001019060200180831161096d57829003601f168201915b505050505081526020016005820160009054906101000a900460ff1660038111156109b8576109b7610d95565b5b60038111156109ca576109c9610d95565b5b815250508152602001906001019061071e565b50505050905090565b6000604051905090565b600080fd5b600080fd5b6000819050919050565b610a0d816109fa565b8114610a1857600080fd5b50565b600081359050610a2a81610a04565b92915050565b600060ff82169050919050565b610a4681610a30565b8114610a5157600080fd5b50565b600081359050610a6381610a3d565b92915050565b60008060408385031215610a8057610a7f6109f0565b5b6000610a8e85828601610a1b565b9250506020610a9f85828601610a54565b9150509250929050565b600080fd5b600080fd5b6000601f19601f8301169050919050565b7f4e487b7100000000000000000000000000000000000000000000000000000000600052604160045260246000fd5b610afc82610ab3565b810181811067ffffffffffffffff82111715610b1b57610b1a610ac4565b5b80604052505050565b6000610b2e6109e6565b9050610b3a8282610af3565b919050565b600067ffffffffffffffff821115610b5a57610b59610ac4565b5b610b6382610ab3565b9050602081019050919050565b82818337600083830152505050565b6000610b92610b8d84610b3f565b610b24565b905082815260208101848484011115610bae57610bad610aae565b5b610bb9848285610b70565b509392505050565b600082601f830112610bd657610bd5610aa9565b5b8135610be6848260208601610b7f565b91505092915050565b600080600080600060a08688031215610c0b57610c0a6109f0565b5b600086013567ffffffffffffffff811115610c2957610c286109f5565b5b610c3588828901610bc1565b955050602086013567ffffffffffffffff811115610c5657610c556109f5565b5b610c6288828901610bc1565b9450506040610c7388828901610a1b565b935050606086013567ffffffffffffffff811115610c9457610c936109f5565b5b610ca088828901610bc1565b925050608086013567ffffffffffffffff811115610cc157610cc06109f5565b5b610ccd88828901610bc1565b9150509295509295909350565b600060208284031215610cf057610cef6109f0565b5b6000610cfe84828501610a1b565b91505092915050565b600081519050919050565b600082825260208201905092915050565b60005b83811015610d41578082015181840152602081019050610d26565b60008484015250505050565b6000610d5882610d07565b610d628185610d12565b9350610d72818560208601610d23565b610d7b81610ab3565b840191505092915050565b610d8f816109fa565b82525050565b7f4e487b7100000000000000000000000000000000000000000000000000000000600052602160045260246000fd5b60048110610dd557610dd4610d95565b5b50565b6000819050610de682610dc4565b919050565b6000610df682610dd8565b9050919050565b610e0681610deb565b82525050565b600060c0820190508181036000830152610e268189610d4d565b90508181036020830152610e3a8188610d4d565b9050610e496040830187610d86565b8181036060830152610e5b8186610d4d565b90508181036080830152610e6f8185610d4d565b9050610e7e60a0830184610dfd565b979650505050505050565b600073ffffffffffffffffffffffffffffffffffffffff82169050919050565b6000610eb482610e89565b9050919050565b610ec481610ea9565b82525050565b6000602082019050610edf6000830184610ebb565b92915050565b600081519050919050565b600082825260208201905092915050565b6000819050602082019050919050565b600082825260208201905092915050565b6000610f2d82610d07565b610f378185610f11565b9350610f47818560208601610d23565b610f5081610ab3565b840191505092915050565b610f64816109fa565b82525050565b610f7381610deb565b82525050565b600060c0830160008301518482036000860152610f968282610f22565b91505060208301518482036020860152610fb08282610f22565b9150506040830151610fc56040860182610f5b565b5060608301518482036060860152610fdd8282610f22565b91505060808301518482036080860152610ff78282610f22565b91505060a083015161100c60a0860182610f6a565b508091505092915050565b60006110238383610f79565b905092915050565b6000602082019050919050565b600061104382610ee5565b61104d8185610ef0565b93508360208202850161105f85610f01565b8060005b8581101561109b578484038952815161107c8582611017565b94506110878361102b565b925060208a01995050600181019050611063565b50829750879550505050505092915050565b600060208201905081810360008301526110c78184611038565b905092915050565b7f4f6e6c79206f776e65722063616e20706572666f726d2074686973206163746960008201527f6f6e000000000000000000000000000000000000000000000000000000000000602082015250565b600061112b602283610d12565b9150611136826110cf565b604082019050919050565b6000602082019050818103600083015261115a8161111e565b9050919050565b7f496e76616c696420696e64657800000000000000000000000000000000000000600082015250565b6000611197600d83610d12565b91506111a282611161565b602082019050919050565b600060208201905081810360008301526111c68161118a565b9050919050565b7f4e487b7100000000000000000000000000000000000000000000000000000000600052603260045260246000fd5b60006040820190506112116000830185610d86565b61121e6020830184610dfd565b9392505050565b7f4e487b7100000000000000000000000000000000000000000000000000000000600052602260045260246000fd5b6000600282049050600182168061126c57607f821691505b60208210810361127f5761127e611225565b5b50919050565b60008190508160005260206000209050919050565b60006020601f8301049050919050565b600082821b905092915050565b6000600883026112e77fffffffffffffffffffffffffffffffffffffffffffffffffffffffffffffffff826112aa565b6112f186836112aa565b95508019841693508086168417925050509392505050565b6000819050919050565b600061132e611329611324846109fa565b611309565b6109fa565b9050919050565b6000819050919050565b61134883611313565b61135c61135482611335565b8484546112b7565b825550505050565b600090565b611371611364565b61137c81848461133f565b505050565b5b818110156113a057611395600082611369565b600181019050611382565b5050565b601f8211156113e5576113b681611285565b6113bf8461129a565b810160208510156113ce578190505b6113e26113da8561129a565b830182611381565b50505b505050565b600082821c905092915050565b6000611408600019846008026113ea565b1980831691505092915050565b600061142183836113f7565b9150826002028217905092915050565b61143a82610d07565b67ffffffffffffffff81111561145357611452610ac4565b5b61145d8254611254565b6114688282856113a4565b600060209050601f83116001811461149b5760008415611489578287015190505b6114938582611415565b8655506114fb565b601f1984166114a986611285565b60005b828110156114d1578489015182556001820191506020850194506020810190506114ac565b868310156114ee57848901516114ea601f8916826113f7565b8355505b6001600288020188555050505b505050505050565b6000606082019050818103600083015261151d8186610d4d565b905081810360208301526115318185610d4d565b905081810360408301526115458184610d4d565b905094935050505056fea2646970667358221220641d031f40ef2d44221b34ce9c26c5270b16e86a03081a35d873f8f8fb1f342464736f6c634300081c0033",
  "linkReferences": {},
  "deployedLinkReferences": {}
}